{
	"data": {
		"bytecode": {
			"linkReferences": {},
			"object": "6080604052600a600055601460015534801561001a57600080fd5b5061014a8061002a6000396000f3fe608060405260043610610057576000357c0100000000000000000000000000000000000000000000000000000000900463ffffffff1680630525ee221461005c5780635cfb28e7146100875780639944cc71146100b2575b600080fd5b34801561006857600080fd5b506100716100e4565b6040518082815260200191505060405180910390f35b34801561009357600080fd5b5061009c6100ea565b6040518082815260200191505060405180910390f35b3480156100be57600080fd5b506100c76100f7565b604051808381526020018281526020019250505060405180910390f35b60015481565b6000600260015401905090565b6000806101066005600661010e565b915091509091565b600080838391509150925092905056fea165627a7a7230582087b59b5571732ad1cdb678c639d0f45e3ee8c8bc302472ef18b3f7da95b6545d0029",
			"opcodes": "PUSH1 0x80 PUSH1 0x40 MSTORE PUSH1 0xA PUSH1 0x0 SSTORE PUSH1 0x14 PUSH1 0x1 SSTORE CALLVALUE DUP1 ISZERO PUSH2 0x1A JUMPI PUSH1 0x0 DUP1 REVERT JUMPDEST POP PUSH2 0x14A DUP1 PUSH2 0x2A PUSH1 0x0 CODECOPY PUSH1 0x0 RETURN INVALID PUSH1 0x80 PUSH1 0x40 MSTORE PUSH1 0x4 CALLDATASIZE LT PUSH2 0x57 JUMPI PUSH1 0x0 CALLDATALOAD PUSH29 0x100000000000000000000000000000000000000000000000000000000 SWAP1 DIV PUSH4 0xFFFFFFFF AND DUP1 PUSH4 0x525EE22 EQ PUSH2 0x5C JUMPI DUP1 PUSH4 0x5CFB28E7 EQ PUSH2 0x87 JUMPI DUP1 PUSH4 0x9944CC71 EQ PUSH2 0xB2 JUMPI JUMPDEST PUSH1 0x0 DUP1 REVERT JUMPDEST CALLVALUE DUP1 ISZERO PUSH2 0x68 JUMPI PUSH1 0x0 DUP1 REVERT JUMPDEST POP PUSH2 0x71 PUSH2 0xE4 JUMP JUMPDEST PUSH1 0x40 MLOAD DUP1 DUP3 DUP2 MSTORE PUSH1 0x20 ADD SWAP2 POP POP PUSH1 0x40 MLOAD DUP1 SWAP2 SUB SWAP1 RETURN JUMPDEST CALLVALUE DUP1 ISZERO PUSH2 0x93 JUMPI PUSH1 0x0 DUP1 REVERT JUMPDEST POP PUSH2 0x9C PUSH2 0xEA JUMP JUMPDEST PUSH1 0x40 MLOAD DUP1 DUP3 DUP2 MSTORE PUSH1 0x20 ADD SWAP2 POP POP PUSH1 0x40 MLOAD DUP1 SWAP2 SUB SWAP1 RETURN JUMPDEST CALLVALUE DUP1 ISZERO PUSH2 0xBE JUMPI PUSH1 0x0 DUP1 REVERT JUMPDEST POP PUSH2 0xC7 PUSH2 0xF7 JUMP JUMPDEST PUSH1 0x40 MLOAD DUP1 DUP4 DUP2 MSTORE PUSH1 0x20 ADD DUP3 DUP2 MSTORE PUSH1 0x20 ADD SWAP3 POP POP POP PUSH1 0x40 MLOAD DUP1 SWAP2 SUB SWAP1 RETURN JUMPDEST PUSH1 0x1 SLOAD DUP2 JUMP JUMPDEST PUSH1 0x0 PUSH1 0x2 PUSH1 0x1 SLOAD ADD SWAP1 POP SWAP1 JUMP JUMPDEST PUSH1 0x0 DUP1 PUSH2 0x106 PUSH1 0x5 PUSH1 0x6 PUSH2 0x10E JUMP JUMPDEST SWAP2 POP SWAP2 POP SWAP1 SWAP2 JUMP JUMPDEST PUSH1 0x0 DUP1 DUP4 DUP4 SWAP2 POP SWAP2 POP SWAP3 POP SWAP3 SWAP1 POP JUMP INVALID LOG1 PUSH6 0x627A7A723058 KECCAK256 DUP8 0xb5 SWAP12 SSTORE PUSH18 0x732AD1CDB678C639D0F45E3EE8C8BC302472 0xef XOR 0xb3 0xf7 0xda SWAP6 0xb6 SLOAD 0x5d STOP 0x29 "
		},
		"gasEstimates": {
			"creation": {
				"codeDepositCost": "66000",
				"executionCost": "40129",
				"totalCost": "106129"
			},
			"external": {
				"getData1()": "339",
				"pub_b()": "394",
				"setVal()": "430"
			},
			"internal": {
				"getData()": "infinite",
				"getInt()": "infinite",
				"getInteger(int256,int256)": "44"
			}
		},
		"methodIdentifiers": {
			"getData1()": "9944cc71",
			"pub_b()": "0525ee22",
			"setVal()": "5cfb28e7"
		}
	},
	"abi": [
		{
			"constant": true,
			"inputs": [],
			"name": "pub_b",
			"outputs": [
				{
					"name": "",
					"type": "int256"
				}
			],
			"payable": false,
			"stateMutability": "view",
			"type": "function"
		},
		{
			"constant": true,
			"inputs": [],
			"name": "setVal",
			"outputs": [
				{
					"name": "",
					"type": "int256"
				}
			],
			"payable": false,
			"stateMutability": "view",
			"type": "function"
		},
		{
			"constant": true,
			"inputs": [],
			"name": "getData1",
			"outputs": [
				{
					"name": "",
					"type": "int256"
				},
				{
					"name": "",
					"type": "int256"
				}
			],
			"payable": false,
			"stateMutability": "view",
			"type": "function"
		}
	]
}