{
	"data": {
		"bytecode": {
			"linkReferences": {},
			"object": "6080604052348015600f57600080fd5b5060838061001e6000396000f3fe608060405260043610601c5760003560e01c80637c6ba37b14601e575b005b348015602957600080fd5b5060306046565b6040518082815260200191505060405180910390f35b60004790509056fea265627a7a723158208e53870432fb951260282d0f8a29ecbb4255edf4a865972609ef9fd4e03492dd64736f6c63430005110032",
			"opcodes": "PUSH1 0x80 PUSH1 0x40 MSTORE CALLVALUE DUP1 ISZERO PUSH1 0xF JUMPI PUSH1 0x0 DUP1 REVERT JUMPDEST POP PUSH1 0x83 DUP1 PUSH2 0x1E PUSH1 0x0 CODECOPY PUSH1 0x0 RETURN INVALID PUSH1 0x80 PUSH1 0x40 MSTORE PUSH1 0x4 CALLDATASIZE LT PUSH1 0x1C JUMPI PUSH1 0x0 CALLDATALOAD PUSH1 0xE0 SHR DUP1 PUSH4 0x7C6BA37B EQ PUSH1 0x1E JUMPI JUMPDEST STOP JUMPDEST CALLVALUE DUP1 ISZERO PUSH1 0x29 JUMPI PUSH1 0x0 DUP1 REVERT JUMPDEST POP PUSH1 0x30 PUSH1 0x46 JUMP JUMPDEST PUSH1 0x40 MLOAD DUP1 DUP3 DUP2 MSTORE PUSH1 0x20 ADD SWAP2 POP POP PUSH1 0x40 MLOAD DUP1 SWAP2 SUB SWAP1 RETURN JUMPDEST PUSH1 0x0 SELFBALANCE SWAP1 POP SWAP1 JUMP INVALID LOG2 PUSH6 0x627A7A723158 KECCAK256 DUP15 MSTORE8 DUP8 DIV ORIGIN 0xFB SWAP6 SLT PUSH1 0x28 0x2D 0xF DUP11 0x29 0xEC 0xBB TIMESTAMP SSTORE 0xED DELEGATECALL 0xA8 PUSH6 0x972609EF9FD4 0xE0 CALLVALUE SWAP3 0xDD PUSH5 0x736F6C6343 STOP SDIV GT STOP ORIGIN "
		},
		"gasEstimates": {
			"creation": {
				"codeDepositCost": "26200",
				"executionCost": "81",
				"totalCost": "26281"
			},
			"external": {
				"": "74",
				"getBalanceContractA()": "193"
			}
		},
		"methodIdentifiers": {
			"getBalanceContractA()": "7c6ba37b"
		}
	},
	"abi": [
		{
			"payable": true,
			"stateMutability": "payable",
			"type": "fallback"
		},
		{
			"constant": true,
			"inputs": [],
			"name": "getBalanceContractA",
			"outputs": [
				{
					"internalType": "uint256",
					"name": "",
					"type": "uint256"
				}
			],
			"payable": false,
			"stateMutability": "view",
			"type": "function"
		}
	]
}